S0180000424C455F47575F50505F4465766963652E737265638E
S11300000C945A000C9477000C9477000C947700AD
S11300100C9477000C9477000C9477000C94770080
S11300200C9477000C9477000C9477000C94770070
S11300300C9477000C9477000C9477000C94770060
S11300400C9477000C9477000C94D6000C947700F1
S11300500C9477000C9477000C9477000C94770040
S11300600C9477000C9477000C9477000C94770030
S11300700C9477000C9477000C9477000C94770020
S11300800C9477000C9477000C9477000C94770010
S11300900C9477000C9477000C9477000C94770000
S11300A00C9477000C9477000C9477000C947700F0
S11300B00C94770011241FBECFEFD8E0DEBFCDBF74
S11300C011E0A0E0B1E0EEEDF3E002C005900D9286
S11300D0A632B107D9F721E0A6E2B1E001C01D9232
S11300E0A735B207E1F70E94A0000C94ED010C942F
S11300F0000087E680937C00E4E6F0E080818E7F58
S11301008083EAE7F0E087E98083808180648083EC
S1130110089580917A00807180933B01882361F077
S1130120EAE7F0E0808180618083809179008093A8
S11301303A018081806480830895219A29980895E2
S1130140E1E6F0E080E8808310820E949D000E9436
S1130150B7000E94F8000E94790078940E94BE00C3
S11301600E9489000E9491010E941001F7CF82E051
S113017084BD85E085BD87E287BD089585B382701F
S113018080933B01882389F0A99A809144018823B4
S113019061F0809156018F5F843119F0809356018C
S11301A00895109256011092440108951F920F92DF
S11301B00FB60F9211248F939F93EF93FF93109296
S11301C05601809144019091C600E82FF0E0E75D6C
S11301D0FE4F9083803118F48F5F80934401FF9128
S11301E0EF919F918F910F900FBE0F901F901895D4
S11301F01092C50083E38093C40088E98093C10012
S1130200EEE3F1E080E380838183828383838DE066
S113021084838AE085831092450110923D010895FC
S11302208091450181112EC080913D01833069F494
S113023081E291E0909327018093260184E08093EA
S1130240450182E080933D010895823069F480E0A5
S113025091E0909327018093260181E280934501E8
S113026081E080933D010895813041F58EE391E072
S1130270909327018093260186E080934501109294
S11302803D0108958091C000807280933B018823D2
S1130290A9F0E0912601F091270180818093C600A6
S11302A080912601909127010196909327018093D4
S11302B026018091450181508093450108958091E4
S11302C02801982F907F903331F48F7080933B01F5
S11302D08A30B8F40895903449F48F709FEF980FE2
S11302E0963078F4875F80933B010895903649F403
S11302F08F709FEF980F963020F4875F80933B01B7
S1130300089580E180933B01089580913B018A30F8
S113031020F4805D80933B010895895A80933B01CA
S11303200895CF93DF93809144018F3008F452C035
S113033010924401809137018A3009F04BC08091BA
S113034036018D3009F046C0809135018E3209F0B6
S113035041C080913301809328010E945F01809104
S11303603B018031B9F18295807F80933C0180917B
S11303703401809328010E945F0190913B019031E8
S113038049F180913C01892B80933C01811102C089
S1130390299820C0813011F4299A1CC08230D1F4EC
S11303A080913A0182958F7080933B010E94850170
S11303B0CEE3D1E080913B018A8380913A018F7032
S11303C080933B010E94850180913B018B8383E0F4
S11103D080933D01DF91CF910895F894FFCF03
S11303DE3335363438656436313862333433373531
S11303EE6239666464376637613035396333346332
S10903FE2C7375772C003E
S9030000FC
